{
    "abi": [
        {
            "type": "constructor",
            "inputs": [],
            "stateMutability": "nonpayable"
        },
        {
            "type": "receive",
            "stateMutability": "payable"
        },
        {
            "type": "function",
            "name": "allowed",
            "inputs": [],
            "outputs": [
                {
                    "name": "",
                    "type": "address",
                    "internalType": "contract IAllowed"
                }
            ],
            "stateMutability": "view"
        },
        {
            "type": "function",
            "name": "bid",
            "inputs": [
                {
                    "name": "id",
                    "type": "uint64",
                    "internalType": "uint64"
                },
                {
                    "name": "exchange",
                    "type": "address",
                    "internalType": "address"
                },
                {
                    "name": "dstFee",
                    "type": "uint256",
                    "internalType": "uint256"
                },
                {
                    "name": "slippagePercent",
                    "type": "uint32",
                    "internalType": "uint32"
                },
                {
                    "name": "data",
                    "type": "bytes",
                    "internalType": "bytes"
                }
            ],
            "outputs": [],
            "stateMutability": "nonpayable"
        },
        {
            "type": "function",
            "name": "fill",
            "inputs": [
                {
                    "name": "id",
                    "type": "uint64",
                    "internalType": "uint64"
                },
                {
                    "name": "fee",
                    "type": "address",
                    "internalType": "address"
                },
                {
                    "name": "dstSenderAmount",
                    "type": "uint256",
                    "internalType": "uint256"
                },
                {
                    "name": "feeSwapExchange",
                    "type": "address",
                    "internalType": "address"
                },
                {
                    "name": "feeSwapData",
                    "type": "bytes",
                    "internalType": "bytes"
                }
            ],
            "outputs": [],
            "stateMutability": "nonpayable"
        },
        {
            "type": "function",
            "name": "init",
            "inputs": [
                {
                    "name": "_twap",
                    "type": "address",
                    "internalType": "contract TWAP"
                },
                {
                    "name": "_allowed",
                    "type": "address",
                    "internalType": "contract IAllowed"
                }
            ],
            "outputs": [],
            "stateMutability": "nonpayable"
        },
        {
            "type": "function",
            "name": "rescue",
            "inputs": [
                {
                    "name": "token",
                    "type": "address",
                    "internalType": "address"
                },
                {
                    "name": "to",
                    "type": "address",
                    "internalType": "address"
                },
                {
                    "name": "amount",
                    "type": "uint256",
                    "internalType": "uint256"
                }
            ],
            "outputs": [],
            "stateMutability": "nonpayable"
        },
        {
            "type": "function",
            "name": "twap",
            "inputs": [],
            "outputs": [
                {
                    "name": "",
                    "type": "address",
                    "internalType": "contract TWAP"
                }
            ],
            "stateMutability": "view"
        },
        {
            "type": "error",
            "name": "NotAllowed",
            "inputs": [
                {
                    "name": "caller",
                    "type": "address",
                    "internalType": "address"
                }
            ]
        }
    ],
    "bytecode": {
        "object": "0x608060405234801561001057600080fd5b50611adf806100206000396000f3fe6080604052600436106100695760003560e01c806378f6d5971161004357806378f6d5971461011a578063f09a40161461013a578063f58e65b81461015a57600080fd5b80631208aa181461007557806319e1fca4146100cb57806320ff430b146100f857600080fd5b3661007057005b600080fd5b34801561008157600080fd5b506000546100a29073ffffffffffffffffffffffffffffffffffffffff1681565b60405173ffffffffffffffffffffffffffffffffffffffff909116815260200160405180910390f35b3480156100d757600080fd5b506001546100a29073ffffffffffffffffffffffffffffffffffffffff1681565b34801561010457600080fd5b50610118610113366004611321565b61017a565b005b34801561012657600080fd5b506101186101353660046113c1565b610352565b34801561014657600080fd5b50610118610155366004611446565b610a30565b34801561016657600080fd5b50610118610175366004611491565b610aca565b6001546040517fd63a8e1100000000000000000000000000000000000000000000000000000000815233600482015273ffffffffffffffffffffffffffffffffffffffff9091169063d63a8e1190602401602060405180830381865afa1580156101e8573d6000803e3d6000fd5b505050506040513d601f19601f8201168201806040525081019061020c91906114dc565b610249576040517ffa5cd00f0000000000000000000000000000000000000000000000000000000081523360048201526024015b60405180910390fd5b73ffffffffffffffffffffffffffffffffffffffff8316156103305780600003610300576040517f70a0823100000000000000000000000000000000000000000000000000000000815230600482015273ffffffffffffffffffffffffffffffffffffffff8416906370a0823190602401602060405180830381865afa1580156102d7573d6000803e3d6000fd5b505050506040513d601f19601f820116820180604052508101906102fb9190611505565b610302565b805b9050801561032b5761032b73ffffffffffffffffffffffffffffffffffffffff84168383610c2e565b505050565b8060000361033e5747610340565b805b9050801561032b5761032b8282610d02565b6001546040517fd63a8e1100000000000000000000000000000000000000000000000000000000815233600482015273ffffffffffffffffffffffffffffffffffffffff9091169063d63a8e1190602401602060405180830381865afa1580156103c0573d6000803e3d6000fd5b505050506040513d601f19601f820116820180604052508101906103e491906114dc565b61041c576040517ffa5cd00f000000000000000000000000000000000000000000000000000000008152336004820152602401610240565b6000546040517f52e8b28800000000000000000000000000000000000000000000000000000000815267ffffffffffffffff8816600482015273ffffffffffffffffffffffffffffffffffffffff909116906352e8b28890602401600060405180830381600087803b15801561049157600080fd5b505af11580156104a5573d6000803e3d6000fd5b5050600080546040517fa0b94e0b00000000000000000000000000000000000000000000000000000000815267ffffffffffffffff8b16600482015291935073ffffffffffffffffffffffffffffffffffffffff16915063a0b94e0b90602401600060405180830381865afa158015610522573d6000803e3d6000fd5b505050506040513d6000823e601f3d9081017fffffffffffffffffffffffffffffffffffffffffffffffffffffffffffffffe01682016040526105689190810190611815565b9050600073ffffffffffffffffffffffffffffffffffffffff851615801590610653575060008054906101000a900473ffffffffffffffffffffffffffffffffffffffff1673ffffffffffffffffffffffffffffffffffffffff1663c11a463d6040518163ffffffff1660e01b8152600401602060405180830381865afa1580156105f7573d6000803e3d6000fd5b505050506040513d601f19601f8201168201806040525081019061061b9190611906565b73ffffffffffffffffffffffffffffffffffffffff168260c001516040015173ffffffffffffffffffffffffffffffffffffffff1614155b801561067c575060c08201516040015173ffffffffffffffffffffffffffffffffffffffff1615155b905080156107c65760c0820151604001516106ae9073ffffffffffffffffffffffffffffffffffffffff168688610e5c565b8473ffffffffffffffffffffffffffffffffffffffff1663b1c972ad8360c001516040015160008054906101000a900473ffffffffffffffffffffffffffffffffffffffff1673ffffffffffffffffffffffffffffffffffffffff1663c11a463d6040518163ffffffff1660e01b8152600401602060405180830381865afa15801561073e573d6000803e3d6000fd5b505050506040513d601f19601f820116820180604052508101906107629190611906565b8960008760c0015161012001518a8a6040518863ffffffff1660e01b815260040161079397969594939291906119b6565b600060405180830381600087803b1580156107ad57600080fd5b505af11580156107c1573d6000803e3d6000fd5b505050505b60008060009054906101000a900473ffffffffffffffffffffffffffffffffffffffff1673ffffffffffffffffffffffffffffffffffffffff1663c11a463d6040518163ffffffff1660e01b8152600401602060405180830381865afa158015610834573d6000803e3d6000fd5b505050506040513d601f19601f820116820180604052508101906108589190611906565b6040517f70a0823100000000000000000000000000000000000000000000000000000000815230600482015273ffffffffffffffffffffffffffffffffffffffff91909116906370a0823190602401602060405180830381865afa1580156108c4573d6000803e3d6000fd5b505050506040513d601f19601f820116820180604052508101906108e89190611505565b905080156109ec5760008054906101000a900473ffffffffffffffffffffffffffffffffffffffff1673ffffffffffffffffffffffffffffffffffffffff1663c11a463d6040518163ffffffff1660e01b8152600401602060405180830381865afa15801561095b573d6000803e3d6000fd5b505050506040513d601f19601f8201168201806040525081019061097f9190611906565b73ffffffffffffffffffffffffffffffffffffffff16632e1a7d4d826040518263ffffffff1660e01b81526004016109b991815260200190565b600060405180830381600087803b1580156109d357600080fd5b505af11580156109e7573d6000803e3d6000fd5b505050505b610a04600033846109fd578961017a565b600061017a565b610a11600089600061017a565b610a258360c001516040015189600061017a565b505050505050505050565b60005473ffffffffffffffffffffffffffffffffffffffff16151580610a6d575060015473ffffffffffffffffffffffffffffffffffffffff1615155b15610a7757600080fd5b6000805473ffffffffffffffffffffffffffffffffffffffff9384167fffffffffffffffffffffffff00000000000000000000000000000000000000009182161790915560018054929093169116179055565b6001546040517fd63a8e1100000000000000000000000000000000000000000000000000000000815233600482015273ffffffffffffffffffffffffffffffffffffffff9091169063d63a8e1190602401602060405180830381865afa158015610b38573d6000803e3d6000fd5b505050506040513d601f19601f82011682018060405250810190610b5c91906114dc565b610b94576040517ffa5cd00f000000000000000000000000000000000000000000000000000000008152336004820152602401610240565b6000546040517ff58e65b800000000000000000000000000000000000000000000000000000000815273ffffffffffffffffffffffffffffffffffffffff9091169063f58e65b890610bf490899089908990899089908990600401611a1c565b600060405180830381600087803b158015610c0e57600080fd5b505af1158015610c22573d6000803e3d6000fd5b50505050505050505050565b60405173ffffffffffffffffffffffffffffffffffffffff831660248201526044810182905261032b9084907fa9059cbb00000000000000000000000000000000000000000000000000000000906064015b604080517fffffffffffffffffffffffffffffffffffffffffffffffffffffffffffffffe08184030181529190526020810180517bffffffffffffffffffffffffffffffffffffffffffffffffffffffff167fffffffff0000000000000000000000000000000000000000000000000000000090931692909217909152610fde565b80471015610d6c576040517f08c379a000000000000000000000000000000000000000000000000000000000815260206004820152601d60248201527f416464726573733a20696e73756666696369656e742062616c616e63650000006044820152606401610240565b60008273ffffffffffffffffffffffffffffffffffffffff168260405160006040518083038185875af1925050503d8060008114610dc6576040519150601f19603f3d011682016040523d82523d6000602084013e610dcb565b606091505b505090508061032b576040517f08c379a000000000000000000000000000000000000000000000000000000000815260206004820152603a60248201527f416464726573733a20756e61626c6520746f2073656e642076616c75652c207260448201527f6563697069656e74206d617920686176652072657665727465640000000000006064820152608401610240565b801580610efc57506040517fdd62ed3e00000000000000000000000000000000000000000000000000000000815230600482015273ffffffffffffffffffffffffffffffffffffffff838116602483015284169063dd62ed3e90604401602060405180830381865afa158015610ed6573d6000803e3d6000fd5b505050506040513d601f19601f82011682018060405250810190610efa9190611505565b155b610f88576040517f08c379a000000000000000000000000000000000000000000000000000000000815260206004820152603660248201527f5361666545524332303a20617070726f76652066726f6d206e6f6e2d7a65726f60448201527f20746f206e6f6e2d7a65726f20616c6c6f77616e6365000000000000000000006064820152608401610240565b60405173ffffffffffffffffffffffffffffffffffffffff831660248201526044810182905261032b9084907f095ea7b30000000000000000000000000000000000000000000000000000000090606401610c80565b6000611040826040518060400160405280602081526020017f5361666545524332303a206c6f772d6c6576656c2063616c6c206661696c65648152508573ffffffffffffffffffffffffffffffffffffffff166110ed9092919063ffffffff16565b905080516000148061106157508080602001905181019061106191906114dc565b61032b576040517f08c379a000000000000000000000000000000000000000000000000000000000815260206004820152602a60248201527f5361666545524332303a204552433230206f7065726174696f6e20646964206e60448201527f6f742073756363656564000000000000000000000000000000000000000000006064820152608401610240565b60606110fc8484600085611104565b949350505050565b606082471015611196576040517f08c379a000000000000000000000000000000000000000000000000000000000815260206004820152602660248201527f416464726573733a20696e73756666696369656e742062616c616e636520666f60448201527f722063616c6c00000000000000000000000000000000000000000000000000006064820152608401610240565b6000808673ffffffffffffffffffffffffffffffffffffffff1685876040516111bf9190611a7a565b60006040518083038185875af1925050503d80600081146111fc576040519150601f19603f3d011682016040523d82523d6000602084013e611201565b606091505b50915091506112128783838761121d565b979650505050505050565b606083156112b35782516000036112ac5773ffffffffffffffffffffffffffffffffffffffff85163b6112ac576040517f08c379a000000000000000000000000000000000000000000000000000000000815260206004820152601d60248201527f416464726573733a2063616c6c20746f206e6f6e2d636f6e74726163740000006044820152606401610240565b50816110fc565b6110fc83838151156112c85781518083602001fd5b806040517f08c379a00000000000000000000000000000000000000000000000000000000081526004016102409190611a96565b73ffffffffffffffffffffffffffffffffffffffff8116811461131e57600080fd5b50565b60008060006060848603121561133657600080fd5b8335611341816112fc565b92506020840135611351816112fc565b929592945050506040919091013590565b67ffffffffffffffff8116811461131e57600080fd5b60008083601f84011261138a57600080fd5b50813567ffffffffffffffff8111156113a257600080fd5b6020830191508360208285010111156113ba57600080fd5b9250929050565b60008060008060008060a087890312156113da57600080fd5b86356113e581611362565b955060208701356113f5816112fc565b945060408701359350606087013561140c816112fc565b9250608087013567ffffffffffffffff81111561142857600080fd5b61143489828a01611378565b979a9699509497509295939492505050565b6000806040838503121561145957600080fd5b8235611464816112fc565b91506020830135611474816112fc565b809150509250929050565b63ffffffff8116811461131e57600080fd5b60008060008060008060a087890312156114aa57600080fd5b86356114b581611362565b955060208701356114c5816112fc565b945060408701359350606087013561140c8161147f565b6000602082840312156114ee57600080fd5b815180151581146114fe57600080fd5b9392505050565b60006020828403121561151757600080fd5b5051919050565b7f4e487b7100000000000000000000000000000000000000000000000000000000600052604160045260246000fd5b604051610140810167ffffffffffffffff811182821017156115715761157161151e565b60405290565b604051610100810167ffffffffffffffff811182821017156115715761157161151e565b80516115a681611362565b919050565b80516115a68161147f565b80516115a6816112fc565b60005b838110156115dc5781810151838201526020016115c4565b50506000910152565b600082601f8301126115f657600080fd5b815167ffffffffffffffff808211156116115761161161151e565b604051601f83017fffffffffffffffffffffffffffffffffffffffffffffffffffffffffffffffe0908116603f011681019082821181831017156116575761165761151e565b8160405283815286602085880101111561167057600080fd5b6116818460208301602089016115c1565b9695505050505050565b6000610140828403121561169e57600080fd5b6116a661154d565b90506116b1826115b6565b81526116bf602083016115b6565b60208201526116d0604083016115b6565b6040820152606082015160608201526080820151608082015260a082015160a08201526116ff60c083016115ab565b60c082015261171060e083016115ab565b60e08201526101006117238184016115ab565b908201526101208281015167ffffffffffffffff81111561174357600080fd5b61174f858286016115e5565b82840152505092915050565b600060c0828403121561176d57600080fd5b60405160c0810167ffffffffffffffff82821081831117156117915761179161151e565b81604052829350845191506117a58261147f565b9082526020840151906117b7826112fc565b816020840152604085015191506117cd826112fc565b816040840152606085015160608401526080850151608084015260a08501519150808211156117fb57600080fd5b50611808858286016115e5565b60a0830152505092915050565b60006020828403121561182757600080fd5b815167ffffffffffffffff8082111561183f57600080fd5b90830190610100828603121561185457600080fd5b61185c611577565b6118658361159b565b8152611873602084016115ab565b6020820152611884604084016115ab565b6040820152611895606084016115ab565b6060820152608083015160808201526118b060a084016115b6565b60a082015260c0830151828111156118c757600080fd5b6118d38782860161168b565b60c08301525060e0830151828111156118eb57600080fd5b6118f78782860161175b565b60e08301525095945050505050565b60006020828403121561191857600080fd5b81516114fe816112fc565b6000815180845261193b8160208601602086016115c1565b601f017fffffffffffffffffffffffffffffffffffffffffffffffffffffffffffffffe0169290920160200192915050565b8183528181602085013750600060208284010152600060207fffffffffffffffffffffffffffffffffffffffffffffffffffffffffffffffe0601f840116840101905092915050565b600073ffffffffffffffffffffffffffffffffffffffff808a16835280891660208401525086604083015285606083015260c060808301526119fb60c0830186611923565b82810360a0840152611a0e81858761196d565b9a9950505050505050505050565b67ffffffffffffffff8716815273ffffffffffffffffffffffffffffffffffffffff8616602082015284604082015263ffffffff8416606082015260a060808201526000611a6e60a08301848661196d565b98975050505050505050565b60008251611a8c8184602087016115c1565b9190910192915050565b6020815260006114fe602083018461192356fea26469706673582212202c8b14584106d427d42ff77225e0eebfe85e61430059190e4e05ed75aa72445664736f6c63430008100033",
        "linkReferences": {}
    },
    "methodIdentifiers": {
        "allowed()": "19e1fca4",
        "bid(uint64,address,uint256,uint32,bytes)": "f58e65b8",
        "fill(uint64,address,uint256,address,bytes)": "78f6d597",
        "init(address,address)": "f09a4016",
        "rescue(address,address,uint256)": "20ff430b",
        "twap()": "1208aa18"
    },
    "id": 49
}